:100000000C942A000C94A6010C94CF010C94F801D6
:100010000C9447000C9447000C9447000C94470044
:100020000C9447000C9447000C9447000C94BB00C0
:100030000C9447000C9447000C9447000C94470024
:100040000C9447000C9447000C9447000C94470014
:100050000C94470011241FBECFE5D8E0DEBFCDBF12
:1000600011E0A0E6B0E0EAE1F3E102C005900D92F4
:10007000A632B107D9F711E0A6E2B1E001C01D92A6
:10008000A933B107E1F70E946A080C948B090C941C
:100090000000813081F0813028F08230A9F0833077
:1000A00021F51BC0E3E5F0E080818F7B80838081B8
:1000B000877F80831AC0E3E5F0E0808180648083DD
:1000C0008081877F808311C0E3E5F0E080818F7BB2
:1000D000808380818860808308C0E3E5F0E08081D0
:1000E00080648083808188608083E3E5F0E08081A4
:1000F000887F80838081862B8083413081F04130EE
:1001000028F04230A9F0433021F51BC0E3E5F0E0D0
:1001100080818F7E808380818F7D80830895E3E559
:10012000F0E080818061808380818F7D808308956D
:10013000E3E5F0E080818F7E808380818062808330
:100140000895E3E5F0E080818061808380818062B2
:1001500080830895E9E5F0E08081816080830895DF
:10016000E9E5F0E080818E7F8083089590932701F8
:100170008093260108951F920F920FB60F921124BB
:100180002F933F934F935F936F937F938F939F939F
:10019000AF93BF93EF93FF93E0912601F091270176
:1001A000309709F00995FF91EF91BF91AF919F9121
:1001B0008F917F916F915F914F913F912F910F9010
:1001C0000FBE0F901F901895813051F0813018F0BC
:1001D000823079F40AC070932D0160932C01089548
:1001E00070932B0160932A01089570932901609305
:1001F00028010895813059F0813018F0823091F44F
:100200000CC0EBE5F0E08081806480830895EBE52D
:10021000F0E08081806880830895EBE5F0E08081E4
:10022000806280830895813059F0813018F08230E7
:1002300091F40CC0EBE5F0E080818F7B8083089522
:10024000EBE5F0E080818F7780830895EBE5F0E0C7
:1002500080818F7D808308958130A1F1813020F0ED
:10026000823009F072C05BC0613089F0613030F0DB
:100270006230B1F0633009F068C01BC0E5E5F0E022
:1002800080818E7F808380818D7F80830895E5E5E6
:10029000F0E080818160808380818D7F80830895FC
:1002A000E5E5F0E080818E7F8083808182608083BD
:1002B0000895E5E5F0E0808181608083808182603F
:1002C00080830895613081F0613028F06230A9F0B8
:1002D0006330D9F51BC0E5E5F0E080818B7F80833A
:1002E0008081877F80830895E5E5F0E080818460E8
:1002F00080838081877F80830895E5E5F0E08081B9
:100300008B7F80838081886080830895E5E5F0E0BD
:1003100080818460808380818860808308956230DA
:1003200019F0633069F406C0E4E5F0E080818F7B6A
:1003300080830895E4E5F0E08081806480830895FF
:10034000E4E5F0E080818F7B808308951F920F9217
:100350000FB60F9211242F933F934F935F936F9398
:100360007F938F939F93AF93BF93EF93FF93E0910E
:100370002C01F0912D01309709F00995FF91EF9133
:10038000BF91AF919F918F917F916F915F914F91AD
:100390003F912F910F900FBE0F901F9018951F92B5
:1003A0000F920FB60F9211242F933F934F935F93A9
:1003B0006F937F938F939F93AF93BF93EF93FF932D
:1003C000E0912A01F0912B01309709F00995FF91F6
:1003D000EF91BF91AF919F918F917F916F915F91BD
:1003E0004F913F912F910F900FBE0F901F90189536
:1003F0001F920F920FB60F9211242F933F934F939A
:100400005F936F937F938F939F93AF93BF93EF937C
:10041000FF93E0912801F0912901309709F00995A7
:10042000FF91EF91BF91AF919F918F917F916F91CC
:100430005F914F913F912F910F900FBE0F901F90A2
:100440001895683008F08EC0882311F5413071F49A
:10045000EAE3F0E0208181E090E002C0880F991F7C
:100460006A95E2F7282B208380E00895442309F061
:1004700079C0EAE3F0E0208181E090E002C0880FDB
:10048000991F6A95E2F780958223808380E0089522
:10049000813011F5413071F4E7E3F0E0208181E033
:1004A00090E002C0880F991F6A95E2F7282B2083FD
:1004B00080E00895442309F055C0E7E3F0E020818F
:1004C00081E090E002C0880F991F6A95E2F780955D
:1004D0008223808380E00895823009F5413071F4F1
:1004E000E4E3F0E0208181E090E002C0880F991FF2
:1004F0006A95E2F7282B208380E00895442391F544
:10050000E4E3F0E0208181E090E002C0880F991FD1
:100510006A95E2F780958223808380E00895833096
:1005200009F5413071F4E1E3F0E0208181E090E0F1
:1005300002C0880F991F6A95E2F7282B208380E07C
:100540000895442379F4E1E3F0E0208181E090E034
:1005500002C0880F991F6A95E2F7809582238083F5
:1005600080E0089581E00895683008F08EC0882307
:1005700011F5413071F4EBE3F0E0208181E090E08F
:1005800002C0880F991F6A95E2F7282B208380E02C
:100590000895442309F079C0EBE3F0E0208181E085
:1005A00090E002C0880F991F6A95E2F78095822338
:1005B000808380E00895813011F5413071F4E8E3E3
:1005C000F0E0208181E090E002C0880F991F6A95D9
:1005D000E2F7282B208380E00895442309F055C0DA
:1005E000E8E3F0E0208181E090E002C0880F991FED
:1005F0006A95E2F780958223808380E008958230B7
:1006000009F5413071F4E5E3F0E0208181E090E00C
:1006100002C0880F991F6A95E2F7282B208380E09B
:100620000895442391F5E5E3F0E0208181E090E036
:1006300002C0880F991F6A95E2F780958223808314
:1006400080E00895833009F5413071F4E2E3F0E091
:10065000208181E090E002C0880F991F6A95E2F73F
:10066000282B208380E00895442379F4E2E3F0E02E
:10067000208181E090E002C0880F991F6A95E2F71F
:1006800080958223808380E0089581E00895FA01B7
:100690006830A0F5882359F489B390E002C095959D
:1006A00087956A95E2F78170808380E008958130B4
:1006B00059F486B390E002C0959587956A95E2F764
:1006C0008170808380E00895823059F483B390E094
:1006D00002C0959587956A95E2F78170808380E0E6
:1006E0000895833059F480B390E002C095958795C2
:1006F0006A95E2F78170808380E0089581E0089533
:100700006130C9F4813059F0813028F0823059F0DD
:10071000833089F40CC08FEF8ABB80E008958FEF9F
:1007200087BB80E008958FEF84BB80E008958FEF52
:1007300081BB80E0089581E00895623068F58130E2
:1007400081F0813028F08230A9F0833029F51BC078
:10075000613021F48FEF8BBB80E008951BBA80E0FD
:100760000895613021F48FEF88BB80E0089518BAB6
:1007700080E00895613021F48FEF85BB80E008951B
:1007800015BA80E00895613021F48FEF82BB80E0DC
:10079000089512BA80E0089581E00895683008F065
:1007A00040C0882371F4EBE3F0E0208181E090E029
:1007B00002C0880F991F6A95E2F72827208380E0FE
:1007C0000895813071F4E8E3F0E0208181E090E069
:1007D00002C0880F991F6A95E2F72827208380E0DE
:1007E0000895823071F4E5E3F0E0208181E090E04B
:1007F00002C0880F991F6A95E2F72827208380E0BE
:100800000895833071F4E2E3F0E0208181E090E02C
:1008100002C0880F991F6A95E2F72827208380E09D
:10082000089581E008954F925F926F927F928F9228
:100830009F92AF92BF92CF92DF92EF92FF920F936F
:100840001F93CF93DF93E1ECF0E00F2EF1E3CF2E77
:10085000DD24F02D41E050E00F2EFBE34F2E552418
:10086000F02D0F2EF2E36F2E7724F02D0F2EF4E3F0
:10087000EF2EFF24F02D0F2EF5E38F2E9924F02D6F
:1008800007E310E00F2EF8E3AF2EBB24F02DAAE310
:10089000B0E069E071E08081882351F58281813088
:1008A00059F42C91CA01018002C0880F991F0A9443
:1008B000E2F7282B2C93A3C08C919A01018002C0EF
:1008C000220F331F0A94E2F7922F909589238C937D
:1008D0008381813029F4E2018881822B88838FC053
:1008E000882309F08CC0E20188818923888387C02E
:1008F000813061F58281813061F4E8012881CA018B
:10090000018002C0880F991F0A94E2F7282B2883E0
:1009100076C0E80188819A01018002C0220F331F4E
:100920000A94E2F7922F90958923888383818130FE
:1009300029F4E5018881822B888361C0882309F02E
:100940005EC0E20188818923888359C0823059F5CD
:100950008281813061F4E7012881CA01018002C0EF
:10096000880F991F0A94E2F7282B288348C0E701D3
:1009700088819A01018002C0220F331F0A94E2F796
:10098000922F9095892388838381813029F4E40113
:100990008881822B888333C0882389F5E20188818E
:1009A000892388832CC0833051F58281813061F4A2
:1009B000E6012881CA01018002C0880F991F0A94AC
:1009C000E2F7282B28831BC0E60188819A01018069
:1009D00002C0220F331F0A94E2F7922F90958923C9
:1009E00088838381813029F4E3018881822B888385
:1009F00006C0882321F4E201888189238883349604
:100A0000E617F70709F047CF80E0DF91CF911F91FC
:100A10000F91FF90EF90DF90CF90BF90AF909F909D
:100A20008F907F906F905F904F90089580E062E08C
:100A300041E00E94B40285E38A95F1F780E062E02C
:100A400040E00E94B40280E49FE10197F1F780E06A
:100A500008951F93182F80E061E041E00E94B402E6
:100A600080E060E040E00E94B402112334F480E0B2
:100A700066E041E00E94B40205C080E066E040E02C
:100A80000E94B402812F829586958695837080FF9F
:100A900006C080E065E041E00E94B40205C080E04D
:100AA00065E040E00E94B402812F829586958770B0
:100AB00080FF06C080E064E041E00E94B40205C00F
:100AC00080E064E040E00E94B402812F82958F7044
:100AD00080FF06C080E063E041E00E94B40205C0F0
:100AE00080E063E040E00E94B4020E941605812F7E
:100AF00086958695869580FF06C080E066E041E099
:100B00000E94B40205C080E066E040E00E94B402AA
:100B1000812F8695869580FF06C080E065E041E0E4
:100B20000E94B40205C080E065E040E00E94B4028B
:100B3000812F869580FF06C080E064E041E00E943E
:100B4000B40205C080E064E040E00E94B40210FFFF
:100B500006C080E063E041E00E94B40205C080E08E
:100B600063E040E00E94B4020E94160580E01F91FD
:100B70000895EF92FF920F931F93DF93CF93CDB71A
:100B8000DEB72A970FB6F894DEBF0FBECDBF8C013B
:100B900080E061E041E00E94B40280E060E040E07B
:100BA0000E94B4020115110521F480E30E94290579
:100BB00026C040E07E010894E11CF11CF701E40F1F
:100BC000F11DC8016AE070E00E946E09805D8083BB
:100BD000C8016AE070E00E946E09862F972F8C0191
:100BE0004F5F0115110551F7442349F0142FFE0101
:100BF000E10FF11D80810E9429051150C1F780E0AD
:100C00002A960FB6F894DEBF0FBECDBFCF91DF910D
:100C10001F910F91FF90EF9008951F93CF93DF9353
:100C2000EC0180E061E041E00E94B40280E060E01D
:100C300040E00E94B4028881882351F010E00E94B5
:100C400029051F5FFE01E10FF11D80818823B9F79F
:100C500080E0DF91CF911F9108951F93182F80E0BE
:100C600061E040E00E94B40280E060E040E00E9469
:100C7000B402112334F480E066E041E00E94B40243
:100C800005C080E066E040E00E94B402812F8295BA
:100C900086958695837080FF06C080E065E041E020
:100CA0000E94B40205C080E065E040E00E94B4020A
:100CB000812F82958695877080FF06C080E064E072
:100CC00041E00E94B40205C080E064E040E00E9480
:100CD000B402812F82958F7080FF06C080E063E0B0
:100CE00041E00E94B40205C080E063E040E00E9461
:100CF000B4020E941605812F86958695869580FF01
:100D000006C080E066E041E00E94B40205C080E0D9
:100D100066E040E00E94B402812F8695869580FFB0
:100D200006C080E065E041E00E94B40205C080E0BA
:100D300065E040E00E94B402812F869580FF06C0E6
:100D400080E064E041E00E94B40205C080E064E01D
:100D500040E00E94B40210FF06C080E063E041E082
:100D60000E94B40205C080E063E040E00E94B4024B
:100D70000E94160580E01F910895882341F4603198
:100D800090F4862F80580E942D0680E008958130CF
:100D900011F081E00895603130F4862F80540E9474
:100DA0002D0680E0089580E0089581E00E942D06E0
:100DB00080E49FE10197F1F780E0089583E30E94CA
:100DC0002D0682E30E942D0688E20E942D068CE00B
:100DD0000E942D0686E00E942D0681E00E942D06CD
:100DE00080E00895FF920F931F93CF93DF93F82E27
:100DF000162F042F80E061E041E00E94B40280E001
:100E000060E040E00E94B402113061F480E80E948A
:100E10002D0680EA9FE00197F1F710E01016110609
:100E20006CF015C0123011F081E015C080EC0E940A
:100E30002D0680E49CE90197F1F7EFCFC1E0D0E007
:100E40008CE10E942D0621960C171D07CCF78F2DE3
:100E50000E94290580E0DF91CF911F910F91FF90B3
:100E60000895EF92FF920F931F93CF93DF937C012E
:100E7000162F042F80E061E041E00E94B40280E080
:100E800060E040E00E94B402113061F480E80E940A
:100E90002D0680EA9FE00197F1F710E01016110689
:100EA0006CF015C0123011F081E015C080EC0E948A
:100EB0002D0680E49CE90197F1F7EFCFC1E0D0E087
:100EC0008CE10E942D0621960C171D07CCF7C70157
:100ED0000E94B90580E0DF91CF911F910F91FF90A3
:100EE000EF9008950F931F93CF93DF93EC01062F9C
:100EF000142F80E061E041E00E94B40280E060E0F5
:100F000040E00E94B4021150013019F0023051F457
:100F100005C0812F80580E942D0604C0812F805467
:100F20000E942D06CE010E940D0680E0DF91CF9138
:100F30001F910F9108953F924F925F926F927F920F
:100F40008F929F92AF92BF92CF92DF92EF92FF92D9
:100F50000F931F93DF93CF930F92CDB7DEB75C0152
:100F60008FEFF5018083A114B10411F481E099C0E1
:100F700000E010E00F2EFEE16F2EF1E07F2EF02D4D
:100F80005524689451F86E010894C11CD11C442466
:100F9000689442F80F2EF5E03F2EF02D4801F30142
:100FA000E00FF11FE08081E06E2D40E00E94B4026E
:100FB000F52C83E0652DA6010E94470389818823D3
:100FC00019F4CC24DD242CC00F2EF3E0FF2EF02DDD
:100FD00083E063E0A6010E9447038981882321F40E
:100FE000CC24DD24C3941CC0F42C83E0642DA60122
:100FF0000E9447038981882329F4CC24DD24689446
:10100000C1F80EC0F32C83E0632DA6010E944703B4
:1010100089818823D1F50F2EF3E0CF2EDD24F02D2A
:1010200028EC30E040E951E0CA010197F1F7215086
:101030003040D1F783E06F2DAE014F5F5F4F0E94CC
:1010400047038981882359F48E010F5F1F4F83E086
:101050006F2DA8010E94470389818823C1F3F40101
:10106000EE0FFF1FEE0FFF1FEC0DFD1DE25FFE4FA9
:101070008081F5018083F401E25EFE4F81E06081B2
:1010800041E00E94B40280E00CC081E06E2D41E09E
:101090000E94B4020F5F1F4F0430110509F07ECF8C
:1010A00080E00F90CF91DF911F910F91FF90EF9013
:1010B000DF90CF90BF90AF909F908F907F906F9078
:1010C0005F904F903F90089582E060E041E00E9481
:1010D000B40208952F923F924F925F926F927F9247
:1010E0008F929F92AF92BF92CF92DF92EF92FF9238
:1010F0000F931F93DF93CF930F92CDB7DEB7789402
:101100000E9413040E94DE0682E062E00E942C012D
:1011100082E00E94FA0082E064E678E00E94E40047
:1011200081E062E041E00E94B40280E690E00E942B
:101130000D0681E065E00E94BD06BB247E01089497
:10114000E11CF11C0F2EF1E3CF2EF1E0DF2EF02D8C
:101150000F2EF9E08F2EF1E09F2EF02D0F2EFFE7DE
:101160006F2EF0E07F2EF02D0F2EF5E0AF2EF02D3C
:101170000F2EF8E94F2EFAE35F2EF02D00E911E073
:101180000F2EFEE82F2EF0E03F2EF02DC7010E941B
:101190009B0789818F3FD1F38AE20E9429058091C4
:1011A0003601F601E80FF11D998190838F5F8093DE
:1011B0003601843058F3C601B4010E948209282FF9
:1011C000392F232BE9F40E94D50681E790E00E9495
:1011D0000D0682E064E041E00E94B40280E06A2DE6
:1011E00040E00E9449000E94AA008CEDE2E5F0E098
:1011F000808380E399E00E94B60010923001C6CF50
:101200000E94D506C3010E940D06F6018A2D119297
:101210008A95E9F7109236019201C8010197F1F71A
:1012200021503040D1F710923001B3940E94D5067E
:10123000C1010E940D0681E06A2D0E94BD06E3E017
:10124000BE1609F0A3CF0E94D50688E990E00E945F
:101250000D0681E062E040E00E94B402BB2496CF1C
:1012600080912E0190912F01019690932F018093F0
:101270002E0180912E0190912F01853F910569F5F6
:1012800082E064E040E00E94B4020E94D50684EA55
:1012900090E00E940D0628E93AE340E951E0CA01D6
:1012A0000197F1F721503040D1F70E94D50682EB2B
:1012B00090E00E940D0681E065E00E94BD0685E099
:1012C000E1E3F1E0DF011D928A95E9F71092360122
:1012D00013BE10922F0110922E010895AA1BBB1B62
:1012E00051E107C0AA1FBB1FA617B70710F0A61B26
:1012F000B70B881F991F5A95A9F780959095BC0147
:10130000CD010895FB01DC018D9101908019011040
:0A131000D9F3990B0895F894FFCF6C
:10131A00456E7465722050617373776F7264202111
:10132A0000476172616765206F70656E656400577A
:10133A00726F6E672050617373776F7264005472B4
:10134A007920616761696E00426C6F636B65642026
:10135A002121210047617261676520436C6F7365C3
:10136A006400456E7465722050617373776F72649E
:10137A000000010100000201000003010000040155
:10138A000000050100000601000200010001020040
:10139A000001040100010501000106010001070125
:1013AA000003020001030300010304000103050016
:1013BA0001010001000204010031323334003738E0
:1013CA00392F3435362A3132332D43303D2B04053B
:0613DA00060702030405F2
:00000001FF
